{
  "_format": "hh-sol-artifact-1",
  "contractName": "TellorPlayground",
  "sourceName": "contracts/TellorPlayground.sol",
  "abi": [
    {
      "inputs": [
        {
          "internalType": "string",
          "name": "name",
          "type": "string"
        },
        {
          "internalType": "string",
          "name": "symbol",
          "type": "string"
        }
      ],
      "stateMutability": "nonpayable",
      "type": "constructor"
    },
    {
      "anonymous": false,
      "inputs": [
        {
          "indexed": true,
          "internalType": "address",
          "name": "owner",
          "type": "address"
        },
        {
          "indexed": true,
          "internalType": "address",
          "name": "spender",
          "type": "address"
        },
        {
          "indexed": false,
          "internalType": "uint256",
          "name": "value",
          "type": "uint256"
        }
      ],
      "name": "Approval",
      "type": "event"
    },
    {
      "anonymous": false,
      "inputs": [
        {
          "indexed": false,
          "internalType": "uint256",
          "name": "_requestId",
          "type": "uint256"
        },
        {
          "indexed": false,
          "internalType": "uint256",
          "name": "_time",
          "type": "uint256"
        },
        {
          "indexed": false,
          "internalType": "uint256",
          "name": "_value",
          "type": "uint256"
        }
      ],
      "name": "NewValue",
      "type": "event"
    },
    {
      "anonymous": false,
      "inputs": [
        {
          "indexed": true,
          "internalType": "address",
          "name": "_sender",
          "type": "address"
        },
        {
          "indexed": true,
          "internalType": "uint256",
          "name": "_requestId",
          "type": "uint256"
        },
        {
          "indexed": false,
          "internalType": "uint256",
          "name": "_tip",
          "type": "uint256"
        }
      ],
      "name": "TipAdded",
      "type": "event"
    },
    {
      "anonymous": false,
      "inputs": [
        {
          "indexed": true,
          "internalType": "address",
          "name": "from",
          "type": "address"
        },
        {
          "indexed": true,
          "internalType": "address",
          "name": "to",
          "type": "address"
        },
        {
          "indexed": false,
          "internalType": "uint256",
          "name": "value",
          "type": "uint256"
        }
      ],
      "name": "Transfer",
      "type": "event"
    },
    {
      "inputs": [
        {
          "internalType": "uint256",
          "name": "_requestId",
          "type": "uint256"
        },
        {
          "internalType": "uint256",
          "name": "_amount",
          "type": "uint256"
        }
      ],
      "name": "addTip",
      "outputs": [],
      "stateMutability": "nonpayable",
      "type": "function"
    },
    {
      "inputs": [
        {
          "internalType": "address",
          "name": "owner",
          "type": "address"
        },
        {
          "internalType": "address",
          "name": "spender",
          "type": "address"
        }
      ],
      "name": "allowance",
      "outputs": [
        {
          "internalType": "uint256",
          "name": "",
          "type": "uint256"
        }
      ],
      "stateMutability": "view",
      "type": "function"
    },
    {
      "inputs": [
        {
          "internalType": "address",
          "name": "spender",
          "type": "address"
        },
        {
          "internalType": "uint256",
          "name": "amount",
          "type": "uint256"
        }
      ],
      "name": "approve",
      "outputs": [
        {
          "internalType": "bool",
          "name": "",
          "type": "bool"
        }
      ],
      "stateMutability": "nonpayable",
      "type": "function"
    },
    {
      "inputs": [
        {
          "internalType": "address",
          "name": "account",
          "type": "address"
        }
      ],
      "name": "balanceOf",
      "outputs": [
        {
          "internalType": "uint256",
          "name": "",
          "type": "uint256"
        }
      ],
      "stateMutability": "view",
      "type": "function"
    },
    {
      "inputs": [
        {
          "internalType": "address",
          "name": "",
          "type": "address"
        }
      ],
      "name": "balances",
      "outputs": [
        {
          "internalType": "uint256",
          "name": "",
          "type": "uint256"
        }
      ],
      "stateMutability": "view",
      "type": "function"
    },
    {
      "inputs": [],
      "name": "decimals",
      "outputs": [
        {
          "internalType": "uint8",
          "name": "",
          "type": "uint8"
        }
      ],
      "stateMutability": "view",
      "type": "function"
    },
    {
      "inputs": [
        {
          "internalType": "address",
          "name": "spender",
          "type": "address"
        },
        {
          "internalType": "uint256",
          "name": "subtractedValue",
          "type": "uint256"
        }
      ],
      "name": "decreaseAllowance",
      "outputs": [
        {
          "internalType": "bool",
          "name": "",
          "type": "bool"
        }
      ],
      "stateMutability": "nonpayable",
      "type": "function"
    },
    {
      "inputs": [
        {
          "internalType": "uint256",
          "name": "_requestId",
          "type": "uint256"
        },
        {
          "internalType": "uint256",
          "name": "_timestamp",
          "type": "uint256"
        }
      ],
      "name": "disputeValue",
      "outputs": [],
      "stateMutability": "nonpayable",
      "type": "function"
    },
    {
      "inputs": [
        {
          "internalType": "address",
          "name": "user",
          "type": "address"
        }
      ],
      "name": "faucet",
      "outputs": [],
      "stateMutability": "nonpayable",
      "type": "function"
    },
    {
      "inputs": [
        {
          "internalType": "uint256",
          "name": "_requestId",
          "type": "uint256"
        }
      ],
      "name": "getNewValueCountbyRequestId",
      "outputs": [
        {
          "internalType": "uint256",
          "name": "",
          "type": "uint256"
        }
      ],
      "stateMutability": "view",
      "type": "function"
    },
    {
      "inputs": [
        {
          "internalType": "uint256",
          "name": "_requestId",
          "type": "uint256"
        },
        {
          "internalType": "uint256",
          "name": "index",
          "type": "uint256"
        }
      ],
      "name": "getTimestampbyRequestIDandIndex",
      "outputs": [
        {
          "internalType": "uint256",
          "name": "",
          "type": "uint256"
        }
      ],
      "stateMutability": "view",
      "type": "function"
    },
    {
      "inputs": [
        {
          "internalType": "address",
          "name": "spender",
          "type": "address"
        },
        {
          "internalType": "uint256",
          "name": "addedValue",
          "type": "uint256"
        }
      ],
      "name": "increaseAllowance",
      "outputs": [
        {
          "internalType": "bool",
          "name": "",
          "type": "bool"
        }
      ],
      "stateMutability": "nonpayable",
      "type": "function"
    },
    {
      "inputs": [
        {
          "internalType": "uint256",
          "name": "",
          "type": "uint256"
        },
        {
          "internalType": "uint256",
          "name": "",
          "type": "uint256"
        }
      ],
      "name": "isDisputed",
      "outputs": [
        {
          "internalType": "bool",
          "name": "",
          "type": "bool"
        }
      ],
      "stateMutability": "view",
      "type": "function"
    },
    {
      "inputs": [
        {
          "internalType": "uint256",
          "name": "_requestId",
          "type": "uint256"
        },
        {
          "internalType": "uint256",
          "name": "_timestamp",
          "type": "uint256"
        }
      ],
      "name": "isInDispute",
      "outputs": [
        {
          "internalType": "bool",
          "name": "",
          "type": "bool"
        }
      ],
      "stateMutability": "view",
      "type": "function"
    },
    {
      "inputs": [],
      "name": "name",
      "outputs": [
        {
          "internalType": "string",
          "name": "",
          "type": "string"
        }
      ],
      "stateMutability": "view",
      "type": "function"
    },
    {
      "inputs": [
        {
          "internalType": "uint256",
          "name": "_requestId",
          "type": "uint256"
        },
        {
          "internalType": "uint256",
          "name": "_timestamp",
          "type": "uint256"
        }
      ],
      "name": "retrieveData",
      "outputs": [
        {
          "internalType": "uint256",
          "name": "",
          "type": "uint256"
        }
      ],
      "stateMutability": "view",
      "type": "function"
    },
    {
      "inputs": [
        {
          "internalType": "uint256",
          "name": "_requestId",
          "type": "uint256"
        },
        {
          "internalType": "uint256",
          "name": "_value",
          "type": "uint256"
        }
      ],
      "name": "submitValue",
      "outputs": [],
      "stateMutability": "nonpayable",
      "type": "function"
    },
    {
      "inputs": [],
      "name": "symbol",
      "outputs": [
        {
          "internalType": "string",
          "name": "",
          "type": "string"
        }
      ],
      "stateMutability": "view",
      "type": "function"
    },
    {
      "inputs": [
        {
          "internalType": "uint256",
          "name": "",
          "type": "uint256"
        },
        {
          "internalType": "uint256",
          "name": "",
          "type": "uint256"
        }
      ],
      "name": "timestamps",
      "outputs": [
        {
          "internalType": "uint256",
          "name": "",
          "type": "uint256"
        }
      ],
      "stateMutability": "view",
      "type": "function"
    },
    {
      "inputs": [],
      "name": "totalSupply",
      "outputs": [
        {
          "internalType": "uint256",
          "name": "",
          "type": "uint256"
        }
      ],
      "stateMutability": "view",
      "type": "function"
    },
    {
      "inputs": [
        {
          "internalType": "address",
          "name": "recipient",
          "type": "address"
        },
        {
          "internalType": "uint256",
          "name": "amount",
          "type": "uint256"
        }
      ],
      "name": "transfer",
      "outputs": [
        {
          "internalType": "bool",
          "name": "",
          "type": "bool"
        }
      ],
      "stateMutability": "nonpayable",
      "type": "function"
    },
    {
      "inputs": [
        {
          "internalType": "address",
          "name": "sender",
          "type": "address"
        },
        {
          "internalType": "address",
          "name": "recipient",
          "type": "address"
        },
        {
          "internalType": "uint256",
          "name": "amount",
          "type": "uint256"
        }
      ],
      "name": "transferFrom",
      "outputs": [
        {
          "internalType": "bool",
          "name": "",
          "type": "bool"
        }
      ],
      "stateMutability": "nonpayable",
      "type": "function"
    },
    {
      "inputs": [
        {
          "internalType": "uint256",
          "name": "",
          "type": "uint256"
        },
        {
          "internalType": "uint256",
          "name": "",
          "type": "uint256"
        }
      ],
      "name": "values",
      "outputs": [
        {
          "internalType": "uint256",
          "name": "",
          "type": "uint256"
        }
      ],
      "stateMutability": "view",
      "type": "function"
    }
  ],
  "bytecode": "0x60806040523480156200001157600080fd5b506040516200140a3803806200140a833981810160405260408110156200003757600080fd5b81019080805160405193929190846401000000008211156200005857600080fd5b9083019060208201858111156200006e57600080fd5b82516401000000008111828201881017156200008957600080fd5b82525081516020918201929091019080838360005b83811015620000b85781810151838201526020016200009e565b50505050905090810190601f168015620000e65780820380516001836020036101000a031916815260200191505b50604052602001805160405193929190846401000000008211156200010a57600080fd5b9083019060208201858111156200012057600080fd5b82516401000000008111828201881017156200013b57600080fd5b82525081516020918201929091019080838360005b838110156200016a57818101518382015260200162000150565b50505050905090810190601f168015620001985780820380516001836020036101000a031916815260200191505b5060405250508251620001b491506007906020850190620001e0565b508051620001ca906008906020840190620001e0565b50506009805460ff19166012179055506200027c565b828054600181600116156101000203166002900490600052602060002090601f016020900481019282601f106200022357805160ff191683800117855562000253565b8280016001018555821562000253579182015b828111156200025357825182559160200191906001019062000236565b506200026192915062000265565b5090565b5b8082111562000261576000815560010162000266565b61117e806200028c6000396000f3fe608060405234801561001057600080fd5b506004361061018d5760003560e01c8063752d49a1116100e3578063a9059cbb1161008c578063b86d1d6311610066578063b86d1d6314610527578063dd62ed3e1461055a578063fb0ceb04146105955761018d565b8063a9059cbb146104a8578063acebfc54146104e1578063b041d696146105045761018d565b806395d89b41116100bd57806395d89b4114610444578063a31837011461044c578063a457c2d71461046f5761018d565b8063752d49a1146103db57806377fbb663146103fe57806393fa4915146104215761018d565b8063313ce5671161014557806346eee1c41161011f57806346eee1c41461036657806362f551121461038357806370a08231146103a85761018d565b8063313ce567146102ec578063395093511461030a5780633df0777b146103435761018d565b806318160ddd1161017657806318160ddd1461025c57806323b872dd1461027657806327e235e3146102b95761018d565b806306fdde0314610192578063095ea7b31461020f575b600080fd5b61019a6105b8565b6040805160208082528351818301528351919283929083019185019080838360005b838110156101d45781810151838201526020016101bc565b50505050905090810190601f1680156102015780820380516001836020036101000a031916815260200191505b509250505060405180910390f35b6102486004803603604081101561022557600080fd5b5073ffffffffffffffffffffffffffffffffffffffff813516906020013561066c565b604080519115158252519081900360200190f35b610264610683565b60408051918252519081900360200190f35b6102486004803603606081101561028c57600080fd5b5073ffffffffffffffffffffffffffffffffffffffff813581169160208101359091169060400135610689565b610264600480360360208110156102cf57600080fd5b503573ffffffffffffffffffffffffffffffffffffffff166106ff565b6102f4610711565b6040805160ff9092168252519081900360200190f35b6102486004803603604081101561032057600080fd5b5073ffffffffffffffffffffffffffffffffffffffff813516906020013561071a565b6102486004803603604081101561035957600080fd5b508035906020013561075d565b6102646004803603602081101561037c57600080fd5b503561077d565b6103a66004803603604081101561039957600080fd5b508035906020013561078f565b005b610264600480360360208110156103be57600080fd5b503573ffffffffffffffffffffffffffffffffffffffff1661080c565b6103a6600480360360408110156103f157600080fd5b5080359060200135610834565b6102646004803603604081101561041457600080fd5b508035906020013561087a565b6102646004803603604081101561043757600080fd5b50803590602001356108d3565b61019a6108ee565b6102646004803603604081101561046257600080fd5b508035906020013561096d565b6102486004803603604081101561048557600080fd5b5073ffffffffffffffffffffffffffffffffffffffff8135169060200135610987565b610248600480360360408110156104be57600080fd5b5073ffffffffffffffffffffffffffffffffffffffff81351690602001356109e3565b6103a6600480360360408110156104f757600080fd5b50803590602001356109f0565b6102486004803603604081101561051a57600080fd5b5080359060200135610a4a565b6103a66004803603602081101561053d57600080fd5b503573ffffffffffffffffffffffffffffffffffffffff16610a6a565b6102646004803603604081101561057057600080fd5b5073ffffffffffffffffffffffffffffffffffffffff81358116916020013516610a80565b610264600480360360408110156105ab57600080fd5b5080359060200135610ab8565b60078054604080516020601f60027fffffffffffffffffffffffffffffffffffffffffffffffffffffffffffffffff6101006001881615020190951694909404938401819004810282018101909252828152606093909290918301828280156106625780601f1061063757610100808354040283529160200191610662565b820191906000526020600020905b81548152906001019060200180831161064557829003601f168201915b5050505050905090565b6000610679338484610ae6565b5060015b92915050565b60065490565b6000610696848484610c2d565b6106f584336106f0856040518060600160405280602881526020016110b36028913973ffffffffffffffffffffffffffffffffffffffff8a1660009081526005602090815260408083203384529091529020549190610df4565b610ae6565b5060019392505050565b60036020526000908152604090205481565b60095460ff1690565b33600081815260056020908152604080832073ffffffffffffffffffffffffffffffffffffffff8716845290915281205490916106799185906106f09086610ea5565b600091825260016020908152604080842092845291905290205460ff1690565b60009081526002602052604090205490565b600082815260208181526040808320428085529083528184208590558584526002835281842080546001810182559085529383902090930183905580518581529182019290925280820183905290517fba11e319aee26e7bbac889432515ba301ec8f6d27bf6b94829c21a65c5f6ff259181900360600190a15050565b73ffffffffffffffffffffffffffffffffffffffff1660009081526004602052604090205490565b61083f333083610c2d565b604080518281529051839133917f9e771e1220a6c2e407f3601f70a769ca9fff75a110d1687e0b582824673a1f5c9181900360200190a35050565b6000828152600260205260408120548015806108965750828111155b156108a557600091505061067d565b60008481526002602052604090208054849081106108bf57fe5b906000526020600020015491505092915050565b60009182526020828152604080842092845291905290205490565b60088054604080516020601f60027fffffffffffffffffffffffffffffffffffffffffffffffffffffffffffffffff6101006001881615020190951694909404938401819004810282018101909252828152606093909290918301828280156106625780601f1061063757610100808354040283529160200191610662565b600060208181529281526040808220909352908152205481565b600061067933846106f0856040518060600160405280602581526020016111246025913933600090815260056020908152604080832073ffffffffffffffffffffffffffffffffffffffff8d1684529091529020549190610df4565b6000610679338484610c2d565b600082815260208181526040808320848452825280832083905593825260018082528483209383529290529190912080547fffffffffffffffffffffffffffffffffffffffffffffffffffffffffffffff00169091179055565b600160209081526000928352604080842090915290825290205460ff1681565b610a7d81683635c9adc5dea00000610f20565b50565b73ffffffffffffffffffffffffffffffffffffffff918216600090815260056020908152604080832093909416825291909152205490565b60026020528160005260406000208181548110610ad157fe5b90600052602060002001600091509150505481565b73ffffffffffffffffffffffffffffffffffffffff8316610b52576040517f08c379a00000000000000000000000000000000000000000000000000000000081526004018080602001828103825260248152602001806111006024913960400191505060405180910390fd5b73ffffffffffffffffffffffffffffffffffffffff8216610bbe576040517f08c379a000000000000000000000000000000000000000000000000000000000815260040180806020018281038252602281526020018061106b6022913960400191505060405180910390fd5b73ffffffffffffffffffffffffffffffffffffffff808416600081815260056020908152604080832094871680845294825291829020859055815185815291517f8c5be1e5ebec7d5bd14f71427d1e84f3dd0314c0f7b2291e5b200ac8c7c3b9259281900390910190a3505050565b73ffffffffffffffffffffffffffffffffffffffff8316610c99576040517f08c379a00000000000000000000000000000000000000000000000000000000081526004018080602001828103825260258152602001806110db6025913960400191505060405180910390fd5b73ffffffffffffffffffffffffffffffffffffffff8216610d05576040517f08c379a00000000000000000000000000000000000000000000000000000000081526004018080602001828103825260238152602001806110486023913960400191505060405180910390fd5b610d4f8160405180606001604052806026815260200161108d6026913973ffffffffffffffffffffffffffffffffffffffff86166000908152600460205260409020549190610df4565b73ffffffffffffffffffffffffffffffffffffffff8085166000908152600460205260408082209390935590841681522054610d8b9082610ea5565b73ffffffffffffffffffffffffffffffffffffffff80841660008181526004602090815260409182902094909455805185815290519193928716927fddf252ad1be2c89b69c2b068fc378daa952ba7f163c4a11628f55a4df523b3ef92918290030190a3505050565b60008184841115610e9d576040517f08c379a00000000000000000000000000000000000000000000000000000000081526004018080602001828103825283818151815260200191508051906020019080838360005b83811015610e62578181015183820152602001610e4a565b50505050905090810190601f168015610e8f5780820380516001836020036101000a031916815260200191505b509250505060405180910390fd5b505050900390565b600082820183811015610f1957604080517f08c379a000000000000000000000000000000000000000000000000000000000815260206004820152601b60248201527f536166654d6174683a206164646974696f6e206f766572666c6f770000000000604482015290519081900360640190fd5b9392505050565b73ffffffffffffffffffffffffffffffffffffffff8216610fa257604080517f08c379a000000000000000000000000000000000000000000000000000000000815260206004820152601f60248201527f45524332303a206d696e7420746f20746865207a65726f206164647265737300604482015290519081900360640190fd5b600654610faf9082610ea5565b60065573ffffffffffffffffffffffffffffffffffffffff8216600090815260046020526040902054610fe29082610ea5565b73ffffffffffffffffffffffffffffffffffffffff831660008181526004602090815260408083209490945583518581529351929391927fddf252ad1be2c89b69c2b068fc378daa952ba7f163c4a11628f55a4df523b3ef9281900390910190a3505056fe45524332303a207472616e7366657220746f20746865207a65726f206164647265737345524332303a20617070726f766520746f20746865207a65726f206164647265737345524332303a207472616e7366657220616d6f756e7420657863656564732062616c616e636545524332303a207472616e7366657220616d6f756e74206578636565647320616c6c6f77616e636545524332303a207472616e736665722066726f6d20746865207a65726f206164647265737345524332303a20617070726f76652066726f6d20746865207a65726f206164647265737345524332303a2064656372656173656420616c6c6f77616e63652062656c6f77207a65726fa26469706673582212209ce03f96976ee1e98bfab6a0169c08cb731e6760373942a476628eb3d7ff1fb264736f6c63430007000033",
  "linkReferences": {},
  "deployedLinkReferences": {}
}